{
  "_format": "hh-sol-artifact-1",
  "contractName": "fungible_token",
  "sourceName": "contracts/fungible_token.sol",
  "abi": [
    {
      "inputs": [],
      "stateMutability": "nonpayable",
      "type": "constructor"
    },
    {
      "anonymous": false,
      "inputs": [
        {
          "indexed": true,
          "internalType": "address",
          "name": "owner",
          "type": "address"
        },
        {
          "indexed": true,
          "internalType": "address",
          "name": "spender",
          "type": "address"
        },
        {
          "indexed": false,
          "internalType": "uint256",
          "name": "value",
          "type": "uint256"
        }
      ],
      "name": "Approval",
      "type": "event"
    },
    {
      "anonymous": false,
      "inputs": [
        {
          "indexed": true,
          "internalType": "address",
          "name": "previousOwner",
          "type": "address"
        },
        {
          "indexed": true,
          "internalType": "address",
          "name": "newOwner",
          "type": "address"
        }
      ],
      "name": "OwnershipTransferred",
      "type": "event"
    },
    {
      "anonymous": false,
      "inputs": [
        {
          "indexed": true,
          "internalType": "address",
          "name": "from",
          "type": "address"
        },
        {
          "indexed": true,
          "internalType": "address",
          "name": "to",
          "type": "address"
        },
        {
          "indexed": false,
          "internalType": "uint256",
          "name": "value",
          "type": "uint256"
        }
      ],
      "name": "Transfer",
      "type": "event"
    },
    {
      "inputs": [
        {
          "internalType": "address",
          "name": "owner",
          "type": "address"
        },
        {
          "internalType": "address",
          "name": "spender",
          "type": "address"
        }
      ],
      "name": "allowance",
      "outputs": [
        {
          "internalType": "uint256",
          "name": "",
          "type": "uint256"
        }
      ],
      "stateMutability": "view",
      "type": "function"
    },
    {
      "inputs": [
        {
          "internalType": "address",
          "name": "spender",
          "type": "address"
        },
        {
          "internalType": "uint256",
          "name": "amount",
          "type": "uint256"
        }
      ],
      "name": "approve",
      "outputs": [
        {
          "internalType": "bool",
          "name": "",
          "type": "bool"
        }
      ],
      "stateMutability": "nonpayable",
      "type": "function"
    },
    {
      "inputs": [
        {
          "internalType": "address",
          "name": "account",
          "type": "address"
        }
      ],
      "name": "balanceOf",
      "outputs": [
        {
          "internalType": "uint256",
          "name": "",
          "type": "uint256"
        }
      ],
      "stateMutability": "view",
      "type": "function"
    },
    {
      "inputs": [
        {
          "internalType": "uint256",
          "name": "amount",
          "type": "uint256"
        }
      ],
      "name": "burn",
      "outputs": [],
      "stateMutability": "nonpayable",
      "type": "function"
    },
    {
      "inputs": [],
      "name": "decimals",
      "outputs": [
        {
          "internalType": "uint8",
          "name": "",
          "type": "uint8"
        }
      ],
      "stateMutability": "view",
      "type": "function"
    },
    {
      "inputs": [
        {
          "internalType": "address",
          "name": "spender",
          "type": "address"
        },
        {
          "internalType": "uint256",
          "name": "subtractedValue",
          "type": "uint256"
        }
      ],
      "name": "decreaseAllowance",
      "outputs": [
        {
          "internalType": "bool",
          "name": "",
          "type": "bool"
        }
      ],
      "stateMutability": "nonpayable",
      "type": "function"
    },
    {
      "inputs": [
        {
          "internalType": "address",
          "name": "to",
          "type": "address"
        },
        {
          "internalType": "uint256",
          "name": "amount",
          "type": "uint256"
        }
      ],
      "name": "earnTokens",
      "outputs": [],
      "stateMutability": "nonpayable",
      "type": "function"
    },
    {
      "inputs": [
        {
          "internalType": "address",
          "name": "spender",
          "type": "address"
        },
        {
          "internalType": "uint256",
          "name": "addedValue",
          "type": "uint256"
        }
      ],
      "name": "increaseAllowance",
      "outputs": [
        {
          "internalType": "bool",
          "name": "",
          "type": "bool"
        }
      ],
      "stateMutability": "nonpayable",
      "type": "function"
    },
    {
      "inputs": [
        {
          "internalType": "address",
          "name": "to",
          "type": "address"
        },
        {
          "internalType": "uint256",
          "name": "amount",
          "type": "uint256"
        }
      ],
      "name": "mint",
      "outputs": [],
      "stateMutability": "nonpayable",
      "type": "function"
    },
    {
      "inputs": [],
      "name": "name",
      "outputs": [
        {
          "internalType": "string",
          "name": "",
          "type": "string"
        }
      ],
      "stateMutability": "view",
      "type": "function"
    },
    {
      "inputs": [],
      "name": "owner",
      "outputs": [
        {
          "internalType": "address",
          "name": "",
          "type": "address"
        }
      ],
      "stateMutability": "view",
      "type": "function"
    },
    {
      "inputs": [],
      "name": "renounceOwnership",
      "outputs": [],
      "stateMutability": "nonpayable",
      "type": "function"
    },
    {
      "inputs": [],
      "name": "symbol",
      "outputs": [
        {
          "internalType": "string",
          "name": "",
          "type": "string"
        }
      ],
      "stateMutability": "view",
      "type": "function"
    },
    {
      "inputs": [],
      "name": "totalSupply",
      "outputs": [
        {
          "internalType": "uint256",
          "name": "",
          "type": "uint256"
        }
      ],
      "stateMutability": "view",
      "type": "function"
    },
    {
      "inputs": [
        {
          "internalType": "address",
          "name": "recipient",
          "type": "address"
        },
        {
          "internalType": "uint256",
          "name": "amount",
          "type": "uint256"
        }
      ],
      "name": "transfer",
      "outputs": [
        {
          "internalType": "bool",
          "name": "",
          "type": "bool"
        }
      ],
      "stateMutability": "nonpayable",
      "type": "function"
    },
    {
      "inputs": [
        {
          "internalType": "address",
          "name": "sender",
          "type": "address"
        },
        {
          "internalType": "address",
          "name": "recipient",
          "type": "address"
        },
        {
          "internalType": "uint256",
          "name": "amount",
          "type": "uint256"
        }
      ],
      "name": "transferFrom",
      "outputs": [
        {
          "internalType": "bool",
          "name": "",
          "type": "bool"
        }
      ],
      "stateMutability": "nonpayable",
      "type": "function"
    },
    {
      "inputs": [
        {
          "internalType": "address",
          "name": "newOwner",
          "type": "address"
        }
      ],
      "name": "transferOwnership",
      "outputs": [],
      "stateMutability": "nonpayable",
      "type": "function"
    }
  ],
  "bytecode": "0x60806040523480156200001157600080fd5b506040805180820182526008808252674d6574614d61726b60c01b6020808401828152855180870190965292855284015281519192916200005591600391620001e1565b5080516200006b906004906020840190620001e1565b5050506200008862000082620000a460201b60201c565b620000a8565b6200009e3369021e19e0c9bab2400000620000fa565b62000329565b3390565b600580546001600160a01b038381166001600160a01b0319831681179093556040519116919082907f8be0079c531659141344cd1fd0a4f28419497f9722a3daafe3b4186f6b6457e090600090a35050565b6001600160a01b0382166200012c5760405162461bcd60e51b8152600401620001239062000287565b60405180910390fd5b6200013a60008383620001dc565b80600260008282546200014e9190620002c7565b90915550506001600160a01b038216600090815260208190526040812080548392906200017d908490620002c7565b90915550506040516001600160a01b038316906000907fddf252ad1be2c89b69c2b068fc378daa952ba7f163c4a11628f55a4df523b3ef90620001c2908590620002be565b60405180910390a3620001d860008383620001dc565b5050565b505050565b828054620001ef90620002ec565b90600052602060002090601f0160209004810192826200021357600085556200025e565b82601f106200022e57805160ff19168380011785556200025e565b828001600101855582156200025e579182015b828111156200025e57825182559160200191906001019062000241565b506200026c92915062000270565b5090565b5b808211156200026c576000815560010162000271565b6020808252601f908201527f45524332303a206d696e7420746f20746865207a65726f206164647265737300604082015260600190565b90815260200190565b60008219821115620002e757634e487b7160e01b81526011600452602481fd5b500190565b6002810460018216806200030157607f821691505b602082108114156200032357634e487b7160e01b600052602260045260246000fd5b50919050565b610f8280620003396000396000f3fe608060405234801561001057600080fd5b506004361061010b5760003560e01c8063562cb2c2116100a257806395d89b411161007157806395d89b4114610209578063a457c2d714610211578063a9059cbb14610224578063dd62ed3e14610237578063f2fde38b1461024a5761010b565b8063562cb2c2146101c657806370a08231146101d9578063715018a6146101ec5780638da5cb5b146101f45761010b565b8063313ce567116100de578063313ce56714610176578063395093511461018b57806340c10f191461019e57806342966c68146101b35761010b565b806306fdde0314610110578063095ea7b31461012e57806318160ddd1461014e57806323b872dd14610163575b600080fd5b61011861025d565b6040516101259190610b4c565b60405180910390f35b61014161013c366004610aec565b6102ef565b6040516101259190610b41565b61015661030c565b6040516101259190610eb5565b610141610171366004610ab1565b610312565b61017e6103ab565b6040516101259190610ebe565b610141610199366004610aec565b6103b0565b6101b16101ac366004610aec565b610404565b005b6101b16101c1366004610b15565b610454565b6101b16101d4366004610aec565b610461565b6101566101e7366004610a5e565b6104ab565b6101b16104ca565b6101fc610515565b6040516101259190610b2d565b610118610524565b61014161021f366004610aec565b610533565b610141610232366004610aec565b6105ac565b610156610245366004610a7f565b6105c0565b6101b1610258366004610a5e565b6105eb565b60606003805461026c90610efb565b80601f016020809104026020016040519081016040528092919081815260200182805461029890610efb565b80156102e55780601f106102ba576101008083540402835291602001916102e5565b820191906000526020600020905b8154815290600101906020018083116102c857829003601f168201915b5050505050905090565b60006103036102fc610659565b848461065d565b50600192915050565b60025490565b600061031f848484610711565b6001600160a01b038416600090815260016020526040812081610340610659565b6001600160a01b03166001600160a01b031681526020019081526020016000205490508281101561038c5760405162461bcd60e51b815260040161038390610cf2565b60405180910390fd5b6103a085610398610659565b85840361065d565b506001949350505050565b601290565b60006103036103bd610659565b8484600160006103cb610659565b6001600160a01b03908116825260208083019390935260409182016000908120918b16815292529020546103ff9190610ecc565b61065d565b61040c610659565b6001600160a01b031661041d610515565b6001600160a01b0316146104435760405162461bcd60e51b815260040161038390610d3a565b339150610450828261083b565b5050565b61045e3382610903565b50565b610469610659565b6001600160a01b031661047a610515565b6001600160a01b0316146104a05760405162461bcd60e51b815260040161038390610d3a565b610450338383610711565b6001600160a01b0381166000908152602081905260409020545b919050565b6104d2610659565b6001600160a01b03166104e3610515565b6001600160a01b0316146105095760405162461bcd60e51b815260040161038390610d3a565b61051360006109f5565b565b6005546001600160a01b031690565b60606004805461026c90610efb565b60008060016000610542610659565b6001600160a01b039081168252602080830193909352604091820160009081209188168152925290205490508281101561058e5760405162461bcd60e51b815260040161038390610e39565b6105a2610599610659565b8585840361065d565b5060019392505050565b60006103036105b9610659565b8484610711565b6001600160a01b03918216600090815260016020908152604080832093909416825291909152205490565b6105f3610659565b6001600160a01b0316610604610515565b6001600160a01b03161461062a5760405162461bcd60e51b815260040161038390610d3a565b6001600160a01b0381166106505760405162461bcd60e51b815260040161038390610c24565b61045e816109f5565b3390565b6001600160a01b0383166106835760405162461bcd60e51b815260040161038390610df5565b6001600160a01b0382166106a95760405162461bcd60e51b815260040161038390610c6a565b6001600160a01b0380841660008181526001602090815260408083209487168084529490915290819020849055517f8c5be1e5ebec7d5bd14f71427d1e84f3dd0314c0f7b2291e5b200ac8c7c3b92590610704908590610eb5565b60405180910390a3505050565b6001600160a01b0383166107375760405162461bcd60e51b815260040161038390610db0565b6001600160a01b03821661075d5760405162461bcd60e51b815260040161038390610b9f565b6107688383836109f0565b6001600160a01b038316600090815260208190526040902054818110156107a15760405162461bcd60e51b815260040161038390610cac565b6001600160a01b038085166000908152602081905260408082208585039055918516815290812080548492906107d8908490610ecc565b92505081905550826001600160a01b0316846001600160a01b03167fddf252ad1be2c89b69c2b068fc378daa952ba7f163c4a11628f55a4df523b3ef846040516108229190610eb5565b60405180910390a36108358484846109f0565b50505050565b6001600160a01b0382166108615760405162461bcd60e51b815260040161038390610e7e565b61086d600083836109f0565b806002600082825461087f9190610ecc565b90915550506001600160a01b038216600090815260208190526040812080548392906108ac908490610ecc565b90915550506040516001600160a01b038316906000907fddf252ad1be2c89b69c2b068fc378daa952ba7f163c4a11628f55a4df523b3ef906108ef908590610eb5565b60405180910390a3610450600083836109f0565b6001600160a01b0382166109295760405162461bcd60e51b815260040161038390610d6f565b610935826000836109f0565b6001600160a01b0382166000908152602081905260409020548181101561096e5760405162461bcd60e51b815260040161038390610be2565b6001600160a01b038316600090815260208190526040812083830390556002805484929061099d908490610ee4565b90915550506040516000906001600160a01b038516907fddf252ad1be2c89b69c2b068fc378daa952ba7f163c4a11628f55a4df523b3ef906109e0908690610eb5565b60405180910390a36109f0836000845b505050565b600580546001600160a01b038381166001600160a01b0319831681179093556040519116919082907f8be0079c531659141344cd1fd0a4f28419497f9722a3daafe3b4186f6b6457e090600090a35050565b80356001600160a01b03811681146104c557600080fd5b600060208284031215610a6f578081fd5b610a7882610a47565b9392505050565b60008060408385031215610a91578081fd5b610a9a83610a47565b9150610aa860208401610a47565b90509250929050565b600080600060608486031215610ac5578081fd5b610ace84610a47565b9250610adc60208501610a47565b9150604084013590509250925092565b60008060408385031215610afe578182fd5b610b0783610a47565b946020939093013593505050565b600060208284031215610b26578081fd5b5035919050565b6001600160a01b0391909116815260200190565b901515815260200190565b6000602080835283518082850152825b81811015610b7857858101830151858201604001528201610b5c565b81811115610b895783604083870101525b50601f01601f1916929092016040019392505050565b60208082526023908201527f45524332303a207472616e7366657220746f20746865207a65726f206164647260408201526265737360e81b606082015260800190565b60208082526022908201527f45524332303a206275726e20616d6f756e7420657863656564732062616c616e604082015261636560f01b606082015260800190565b60208082526026908201527f4f776e61626c653a206e6577206f776e657220697320746865207a65726f206160408201526564647265737360d01b606082015260800190565b60208082526022908201527f45524332303a20617070726f766520746f20746865207a65726f206164647265604082015261737360f01b606082015260800190565b60208082526026908201527f45524332303a207472616e7366657220616d6f756e7420657863656564732062604082015265616c616e636560d01b606082015260800190565b60208082526028908201527f45524332303a207472616e7366657220616d6f756e74206578636565647320616040820152676c6c6f77616e636560c01b606082015260800190565b6020808252818101527f4f776e61626c653a2063616c6c6572206973206e6f7420746865206f776e6572604082015260600190565b60208082526021908201527f45524332303a206275726e2066726f6d20746865207a65726f206164647265736040820152607360f81b606082015260800190565b60208082526025908201527f45524332303a207472616e736665722066726f6d20746865207a65726f206164604082015264647265737360d81b606082015260800190565b60208082526024908201527f45524332303a20617070726f76652066726f6d20746865207a65726f206164646040820152637265737360e01b606082015260800190565b60208082526025908201527f45524332303a2064656372656173656420616c6c6f77616e63652062656c6f77604082015264207a65726f60d81b606082015260800190565b6020808252601f908201527f45524332303a206d696e7420746f20746865207a65726f206164647265737300604082015260600190565b90815260200190565b60ff91909116815260200190565b60008219821115610edf57610edf610f36565b500190565b600082821015610ef657610ef6610f36565b500390565b600281046001821680610f0f57607f821691505b60208210811415610f3057634e487b7160e01b600052602260045260246000fd5b50919050565b634e487b7160e01b600052601160045260246000fdfea2646970667358221220d45b037c0ff5773d270c54dff9eb108079390bb9d1b5d05f9bc0990b684d05b964736f6c63430008000033",
  "linkReferences": {},
  "deployedLinkReferences": {}
}